:020000040800F2
:1000000018340010A101000861200008FD1B000841
:100010005D20000841030008DD2B000800000000FF
:100020000000000000000000000000005926000849
:100030008903000800000000912000088D260008B8
:10004000BB010008BB010008BB010008BB010008A0
:10005000BB010008BB010008BB010008BB01000890
:10006000BB010008BB010008BB010008BB01000880
:10007000BB010008BB010008BB01000845030008E4
:10008000BB010008BB010008BB010008BB01000860
:10009000BB010008BB010008BB010008BB01000850
:1000A000BB010008BB010008BB010008BB01000840
:1000B000BB0100080000000000000000BB010008B8
:1000C000BB010008BB010008BB010008BB01000820
:1000D000D1220008D92B0008BB010008BB01000891
:1000E000BB010008BB010008000000000000000088
:1000F0000000000000000000000000000000000000
:1001000000000000BB01000800000000BB01000867
:100110000000000000000000BB010008BB01000857
:10012000BB010008BB010008BB010008BB010008BF
:10013000BB010008000000000000000000000000FB
:10014000BB010008BB010008BB0100080000000063
:10015000BB010008BB010008BB010008BB0100088F
:10016000BB010008BB010008BB0100080000000043
:10017000BB010008BB0100080000000000000000F7
:10018000BB010008BB010008BB010008DFF80CD070
:1001900000F0C4F800480047593E02081834001027
:1001A0000648804706480047FEE7FEE7FEE7FEE711
:1001B000FEE7FEE7FEE7FEE7FEE7FEE74D27000865
:1001C0008D0100082DE9F05F0546002092469B4610
:1001D00088460646814640241BE02846414647465D
:1001E000224600F08AF853465A46C01A914110D36D
:1001F00011461846224600F071F82D1A67EB0108E7
:100200004F4622460120002100F068F817EB000954
:100210004E41201EA4F10104DFDC484631462A4647
:10022000434600F000B830BCBDE8C09F40EA01037F
:100230009B0703D009E008C9121F08C0042AFAD29C
:1002400003E011F8013B00F8013B521EF9D2704760
:10025000D2B201E000F8012B491EFBD27047002208
:10026000F6E710B513460A4604461946FFF7F0FFB5
:10027000204610BD421C10F8011B0029FBD1801A3A
:10028000704710B5002200E0521C835C8C5CA342D6
:1002900001D1002BF8D1D8B2E1B2401A10BD03460B
:1002A00011F8012B00F8012B002AF9D118467047EC
:1002B00030B50B46014600202022012409E021FA36
:1002C00002F59D4205D303FA02F5491B04FA02F533
:1002D0002844151EA2F10102F1DC30BD202A04DB06
:1002E000203A00FA02F1002070479140C2F1200349
:1002F00020FA03F3194390407047202A04DB203A88
:1003000021FA02F00021704721FA02F3D040C2F135
:10031000200291400843194670470000064C074DE3
:1003200006E0E06840F0010394E8070098471034C5
:10033000AC42F6D3FFF72EFF74D10208A4D1020815
:10034000FEE7000080B540F2EC30C1F2000000F0A2
:100350004FF880BDB0B5D0F800C0D0F808E0D0E9C3
:100360001004012504F01C0405FA04F44460084656
:10037000CCF80430BEF1100F04BF10460A46CCF88A
:100380000800CCF80C20B0BD70470000EFF31080DF
:1003900072B600BFFEE7000080B590F82510022974
:1003A00021D10168D0F838E0D0E910C30A68BEF165
:1003B000000F22F00E020A600A6822F001020A60B1
:1003C00003F01C014FF0010202FA01F1CCF8041015
:1003D0004FF0000180F8252080F8241001D0F0476C
:1003E0000021084680BD0421C1630121084680BD6B
:1003F000B0B50268D0E910C4DCF80050136804F00E
:100400001C0E590712D5042101FA0EF414EA050155
:100410000CD01168890603D4116821F00401116021
:10042000CCF80440016BB9B38847B0BD990718D523
:10043000022101FA0EF414EA050112D011688906AE
:1004400006D4116821F00A011160012180F82510FD
:10045000CCF80440C16A002280F82420E1B188472A
:10046000B0BD190758BFB0BD082101FA0EF12940EF
:1004700012D0116821F00E011160012101FA0EF273
:10048000CCF80420C16380F82510416B00220029BC
:1004900080F8242018BF8847B0BD0000002804BFA2
:1004A000012070472DE9F04140F2000CC4F2020C2B
:1004B00002684FF6F8310CF58163CBF6FD719A4274
:1004C00038BF01F580614CF6CD431144CCF6CC43E6
:1004D000A1FB03136FF003060CF5806506EA930396
:1004E000D0E9021ED0F810803CBF0025C4F20205FE
:1004F000C0E91053022380F82530136847F6F075E1
:10050000AB4300F114070B43E0CF43EA0E0343EA89
:1005100008032B43046A33433B432343B1F5804F25
:10052000136016D0D0E910324FF49566416802F09E
:100530001C020F27634508BFA8265CF806309740C9
:10054000BB434CF806305CF80630914019434CF838
:10055000061000210122C16380F8252080F82410B4
:10056000BDE8F0410846704710B5044690F82400F5
:10057000012820D0012084F8240094F825000128C7
:1005800016D1022084F825000020E063D4F800C0D2
:10059000DCF8000020F00100CCF800002046FFF756
:1005A000D9FE2068226B01683AB141F00E010AE0E1
:1005B000002084F82400022010BD21F00401016015
:1005C000016841F00A010160016841F00101016028
:1005D000002010BDB0B5044600F0E8F8054640F232
:1005E0008F00C1F200000078611C18BF044400BFF6
:1005F00000F0DCF8401BA042FAD3B0BD2DE9F04F6B
:1006000083B00D68002D00F0C58000F138424FEA3C
:10061000B22241F200070192C4F600070722002629
:1006200000244FF0010AB84208BF0422009209E0FA
:100630000D68043435FA0AF20AF1010A06F10206DD
:1006400000F0A880AAF1010C012202FA0CFB15EAC5
:100650000B09EDD0D1F8048008F00305A5F1010ED7
:10066000BEF1010F11D887680322CB68B24027EA98
:100670000202B3401A4382604268C8F3001322EAC0
:100680000B0203FA0CF31A434260032D1CD0C2681C
:1006900003238F68B3409A4307FA06F31A43022DE7
:1006A000C26011D16FF0030202EA5C02024404F05E
:1006B0001C070F23D2F820E003FA07F50B692EEA96
:1006C0000505BB402B431362026803234F68B34008
:1006D0009A4307F00303B3401A4317F4403F026004
:1006E000A6D041F26003C4F202031A6840F2004E41
:1006F00042F001021A601A68C4F2010E02F001020F
:100700000292029A2CF003024FF608487244CFF688
:10071000FF7852F8083004F00C070F25BD4023EA9B
:10072000050C019B009D042B38BF1D4605FA07F7F9
:1007300047EA0C0342F80830DEF808204B6842EA2A
:10074000090740F20C4CDD0258BF22EA0907CEF837
:100750000870C4F2010CDCF800209D0242EA09078F
:1007600058BF22EA0907CCF80070DEF804209D0388
:1007700042EA090758BF22EA0907CEF80470DEF8FA
:100780000020DB0342EA090758BF22EA0907CEF836
:1007900000704DE703B000F000B830BCBDE8C08F7A
:1007A0001823002A08BF2823C150704742F614407E
:1007B000C1F200000068704740F28F0042F6144119
:1007C000C1F20000C1F2000100780A68104408601C
:1007D0007047000080B5032000F066F8002000F0AC
:1007E00009F800281CBF012080BD00F02FF8002070
:1007F00080BD0000B0B540F28F01C1F20001097860
:1008000001B3044640F20400C1F200004FF47A72D2
:100810000068B2FBF1F1B0FBF1F001F013F90F2C1D
:100820004FF001050CD858B94FF0FF302146002297
:10083000002500F029F840F29000C1F200000460A9
:100840002846B0BD01252846B0BD000082B041F267
:100850005800C4F20200816841F0010181608168A2
:1008600001F0010101910199016841F0805101609D
:10087000006800F080500090009802B070470000BF
:1008800080B502F0ADF980BD70B514460D46064640
:1008900002F0B6F92946224601F0E4FB0146304653
:1008A00002F0B6F970BD000080B502F0C3F980BD5A
:1008B00047F20001C4F200010A68B0F5007F02F4BB
:1008C000C06026D1B0F5007F21D00868012262F314
:1008D0004A20086040F20400C1F2000000683223A0
:1008E00058434DF68363C4F21B33A0FB030302EBB2
:1008F000934000BF4B69421E824203D213F48060D2
:100900001046F7D14869400544BF032070470020D6
:100910007047B0F5806FFAD00868022262F34A206F
:10092000086000207047000047F20000C4F2000099
:10093000006800F4C060704747F20000C4F2000095
:10094000016841F4807101607047000041F20000CD
:10095000C4F20200016841F0040101607047000028
:100960002DE9F04782B00446407841F2880700073D
:10097000C4F2020702D44FF0000A2EE0606C88B186
:10098000B0F5400F17D0B0F5000F1BD157F87C0C15
:100990004FF0000A40F4803047F87C0CBAF1000FA9
:1009A0000ED114E0201D002101F09AFB8246BAF11D
:1009B000000F05D10BE04FF0000ABAF1000F06D08E
:1009C000D0460CE04FF0010ABAF1000FF8D13868B8
:1009D000616C20F44000084338604FF00008A078B4
:1009E000800701D4C24668E057F8300CC0000ED42E
:1009F00057F8300C4FF0010940F0805047F8300CA8
:100A000057F8300C00F080500190019801E04FF051
:100A1000000947F20005C4F20005286840F4807020
:100A20002860FFF7C3FE06462868C00506D4FFF716
:100A3000BDFE801B0328F7D34FF0030ABAF1000F65
:100A400032D1B86810F4407011D0A16D88420BD03B
:100A5000B868B96820F4407041F48031B960B96871
:100A600021F48031B960B860C00703D112E00020E2
:100A7000C0070FD0FFF79AFE064641F2893500BF46
:100A8000B868800706D4FFF791FE801BA842F7D311
:100A90004FF0030ABAF1000F06D1B868A16D20F437
:100AA00040700843C246B860B9F1000F05D057F84E
:100AB000300C20F0805047F8300C2068C10712D16C
:100AC000810718D441071ED4810624D481052AD475
:100AD000410530D4410636D401063CD4C10542D488
:100AE000000348D461E03968226A21F00301114310
:100AF00039608107E6D53968626A21F00C0111433B
:100B000039604107E0D53968A26A21F0300111430C
:100B100039608106DAD53968E26A21F4406111430F
:100B200039608105D4D53968E26B21F44021114345
:100B300039604105CED53968226C21F4401111434A
:100B400039604106C8D53968226B21F44051114300
:100B500039600106C2D53968626B21F44041114306
:100B60003960C105BCD53968A26B21F4403111430D
:100B70003960000319D53968A06C21F04061014348
:100B8000B0F1806F396009D0B0F1006F0DD157F826
:100B90007C0C40F4801047F87C0C06E0201D0121FD
:100BA00001F09EFA002818BF8246A078400719D5A8
:100BB0003968E06C21F040610143B0F1806F396029
:100BC00009D0B0F1006F0DD157F87C0C40F48010C3
:100BD00047F87C0C06E0201D012101F081FA002875
:100BE00018BF8246607840060FD53868216D20F026
:100BF00040500843B1F1805F386006D1201D0221CA
:100C000001F06EFA002818BF82466078000605D50C
:100C10003868616D20F0804008433860504602B06B
:100C2000BDE8F0872DE9F04381B0002800F0908006
:100C300042F20008C4F202080446D8F800000D464B
:100C400000F0070088420CD2D8F8000020F007001E
:100C50002843C8F80000D8F8000000F00700A842B8
:100C600076D1206841F208098107C4F202090DD546
:100C7000A168D9F8002002F0F002914206D9D9F813
:100C8000002022F0F0021143C9F80010C00756D12D
:100C9000206881070DD5A168D9F8002002F0F00284
:100CA000914206D2D9F8002022F0F0021143C9F88F
:100CB0000010D8F8001001F00701A9420CD9D8F8AB
:100CC000001021F007012943C8F80010D8F80010DF
:100CD00001F00701A9423BD1410707D5D9F800101F
:100CE000E26821F4E0611143C9F80010000708D55B
:100CF000D9F80000216920F4605040EAC100C9F829
:100D0000000000F083F8D9F8001048F61E42C1F345
:100D10000311C0F60202515C40F2040201F01F010F
:100D200020FA01F140F29000C1F200000068C1F227
:100D300000021160FFF75EFD01B0BDE8F08360685E
:100D4000022809D0032829D159F8081C890107D4A1
:100D5000012001B0BDE8F08359F8081C8903F7D5DC
:100D6000D9F8001021F003010843C9F80000FFF78B
:100D70001DFD064641F28837D9F80000616800F091
:100D80000C00B0EB810F3FF483AFFFF70FFD801B2A
:100D9000B842F1D9032001B0BDE8F08359F8081C2E
:100DA00010B14905D4D5DBE78907D1D5D8E70000D4
:100DB00040F20400C1F200000068704780B5FFF700
:100DC000F7FF41F20801C4F20201096848F62E4219
:100DD000C1F30221C0F60202515C01F01F01C840BC
:100DE00080BD000080B5FFF7E3FF41F20801C4F2C7
:100DF0000201096848F62E42C1F3C221C0F6020280
:100E0000515C01F01F01C84080BD000041F20C019F
:100E1000C4F2020151F8040C10F00C02086805D06D
:100E20000C2A40D100F0030001283CD151F80C0CF1
:100E3000000703D4D1F88800000A02E051F80C0C36
:100E4000000948F6384300F00F00C0F6020353F8DB
:100E50002030002A184618BF00200C2A18BF7047FF
:100E6000086800F00300022806D0032804BF41F2FE
:100E70000023C0F27A0303E042F20043C0F2F4031D
:100E80000868C0F302100A680130C2F3062209683C
:100E90005A43B2FBF0F0C1F34161022202EB41017F
:100EA000B0FBF1F07047042A07D0082A0BD141F2B9
:100EB00000200023C0F27A00CFE742F20040002376
:100EC000C0F2F400C9E700200023C6E72DE9F04393
:100ED00081B0002800F0428241F200060446C4F2CC
:100EE0000206B068F168227800F00C08D00601F024
:100EF00003071BD42078C00700F0E980B8F1080F81
:100F000041D0B8F10C0F08BF032F3CD06568B5F590
:100F1000803F07D03068B5F5A02F40F0B58040F491
:100F200080203060306840F48030B3E0B8F1000FCA
:100F30001AD0B8F10C0F08BF012F15D0A169306885
:100F4000002977D040F001003060FFF72FFC054604
:100F50003068800700F18080FFF728FC401B0228E2
:100F60004FF00300F4D942E23068800703D5A0694E
:100F7000002800F0F381206A316809070CD4D6F804
:100F80009410090909E03068800340F1A08060688E
:100F9000002840F09C80E1E1316801F0F0018842D6
:100FA00016D901F04DF9002840F0D881306840F0A2
:100FB000080030603068D4E9072120F0F0000843D1
:100FC0003060706820F47F4040EA0220706013E0D7
:100FD0003168B8F1000F41F008013160316821F04B
:100FE000F00141EA000131607168E26921F47F415A
:100FF00041EA0221716041D0FFF708FFB16848F66D
:101000001E42C1F30311C0F60202515C40F2040219
:1010100001F01F0120FA01F140F29000C1F200003E
:101020000068C1F200021160FFF7E4FB002840F005
:10103000DE815FE720F001003060FFF7B7FB054677
:10104000306880077FF556AFFFF7B0FB401B0228E2
:101050004FF00300F4D9CAE1306840F00800306076
:101060003068D4E9072120F0F00008433060706850
:1010700020F47F4040EA022070603BE701F0E0F896
:10108000002840F06B81B7E720F480303060306892
:1010900020F480203060FFF789FB002D054613D037
:1010A0003068800313D4FFF781FB401B64284FF0A6
:1010B0000300F5D99BE100BFFFF778FB401B6428D4
:1010C0004FF0030000F2938130688003F4D420785D
:1010D00080072CD5B8F1040F1BD0B8F10C0F08BF56
:1010E000022F16D0E1683068002900F0508140F4EA
:1010F00080703060FFF75AFB054600BF306840053E
:101100000ED4FFF753FB401B02284FF00300F5D924
:101110006DE13068400503D5E068002800F01E81CD
:101120007068216920F0F85040EA01607060207812
:10113000000760D42078400777D42078800600F13B
:101140008380A06A002800F07081022840F0D780D8
:10115000F068E16A00F003028A4240F0E780226B07
:101160006FF00F0300F0700103EB0212914240F0A8
:10117000DD80616B00F4FE42B2EB012F40F0D680BF
:10118000A16B00F07842B2EBC16F40F0CF80E26B10
:101190000023CFF6E07303EA025200F4C001A2F587
:1011A0000012914240F0C280216C4FF07E4202EA70
:1011B000016100F0C06001F17E41884240F0B680DC
:1011C0003068800100F13181306840F0807030601B
:1011D000F06840F08070F060FFF7E8FA044630688D
:1011E000800100F12281FFF7E1FA001B02284FF095
:1011F0000300F4D9FBE06169D6F8940000296AD0B5
:1012000040F00100C6F89400FFF7D0FA054600BF91
:10121000D6F8940080078DD4FFF7C8FA401B022847
:10122000F6D9032001B0BDE8F083B06DC00026D42C
:10123000B06D4FF0010940F08050B065B06D00F026
:101240008050009000981CE0616AD6F89800002950
:1012500000F0888040F00100C6F89800FFF7A6FA79
:10126000054600BFD6F8980080073FF56AAFFFF744
:101270009DFA401B02284FF00300F3D9B7E04FF06E
:10128000000947F20007C4F200073868C00512D40D
:10129000386840F480703860FFF788FA054600BF70
:1012A0003868C00507D4FFF781FA401B02284FF0C9
:1012B0000300F5D99BE0A568012D07D0D6F8900072
:1012C000052D77D140F00400C6F89000D6F89000C4
:1012D00040F0010076E020F00100C6F89400FFF72E
:1012E00065FA0546D6F8940080077FF523AFFFF72F
:1012F0005DFA401B02284FF00300F3D977E0B8F104
:101300000C0F2BD0306820F080703060FFF74EFA61
:10131000044600BF3068800140F18080FFF746FA44
:10132000001B02284FF00300F4D960E0B8F10C0F65
:1013300014D03068400111D4306820F080703060E3
:10134000FFF734FA05463068800172D5FFF72EFAB0
:10135000401B02284FF00300F5D948E0012001B0FE
:10136000BDE8F08320F00100C6F89800FFF71EFAF0
:10137000054600BFD6F8980080077FF5E2AEFFF77C
:1013800015FA401B02284FF00300F3D92FE020F498
:1013900080703060FFF70AFA054600BF30684005EC
:1013A0007FF5C5AEFFF702FA401B02284FF003009D
:1013B000F4D91CE020F00100C6F89000D6F89000A7
:1013C00020F00400C6F89000FFF7F0F9002D054664
:1013D00041F2883715D000BFD6F89000800714D4AA
:1013E000FFF7E4F9401BB8424FF00300F4D901B015
:1013F000BDE8F083FFF7DAF9401BB8424FF0030075
:10140000F5D8D6F890008007F4D4B9F1000F3FF476
:1014100094AEB06D20F08050B0658EE6F0684FF667
:10142000FC71CFF6EE610840F060002001B0BDE82D
:10143000F083F06848F28C01C0F29D1104F12C0792
:1014400000EA010C8ECF6FF00F00D4E90F5400EBCF
:1014500002100022CFF6E07241EA0C0102EA0552C6
:101460000843A2F500124FF07E4540EA032005EA4A
:101470000465104305F17E4540EAC7602843F060EB
:10148000306840F080703060F06840F08070F0604C
:10149000FFF78CF9044630688001C6D4FFF786F95F
:1014A000001B02284FF00300F5D9A0E770470000A9
:1014B000B0B582B004460068416882684B0605D525
:1014C00002F04103012B01D1E16C05E00B0607D5C9
:1014D00012F0020304D0216D2046884702B0B0BD4F
:1014E0008B0666D512F4B07363D012F0400317D0A8
:1014F00094F85D30032B08D100210191C16801915E
:1015000080680190019802B0B0BD236E43F00403DF
:10151000236600230193C368019383680193019BB1
:1015200012F0200302F480720CD0236E43F001030A
:1015300023660023019383680193036823F040032B
:101540000360019B42B1226E42F008022266002233
:10155000019282680192019A226E52B34268890711
:1015600022F0E00242604FF0010284F85D201DD0BD
:10157000416842F2BD3521F003014160A06DC0F623
:10158000000538B18563FEF707FF18B1206E40F003
:1015900040002066606D60B18563FEF7FDFE40B1DE
:1015A000206E40F04000206602B0B0BD2046FFF73C
:1015B0007DFF02B0B0BD0000002804BF01207047CD
:1015C000B0B50446406A20B10020206104F1140047
:1015D00005E06068B0F5827F03D004F11C000021B3
:1015E00001600025A56294F85D0020B9204684F8CA
:1015F0005C5000F04FF8022084F85D002068D4F8B9
:101600000CE00268BEF5E06F22F0400202604EF48A
:10161000006298BF0125B2F5706F1CBF0023A36262
:101620004FEA053CD4E90135D4E9042103F482737F
:1016300005F404452B4402F002021A44A36901F0A8
:101640000101E569114403F40072114405F0380208
:10165000256A114405F08002A56A114405F4005280
:10166000114301600421626A0EF4706501EA1341BE
:10167000636B45EA0C0502F01002294303F00803EE
:1016800011431943416000200121206684F85D1058
:10169000B0BD00002DE9F04387B0002641F24C00B8
:1016A0000696CDE90466CDE90266C4F20200C1687F
:1016B00040F2004441F48041C160C168C4F60004B6
:1016C00001F4804101910199016802AD41F00401EA
:1016D000016001684FF0020801F0040101910199D5
:1016E00001684FF0030941F002010160006805271D
:1016F00000F00200019001980820029004F580603B
:101700002946CDE90386CDF814900697FEF776FFBB
:101710004FF40050CDE9020820462946CDE904697E
:101720000697FEF76BFF40F2EC345820C1F200043C
:10173000C4F2020001211022802384E847004FF404
:101740008050C4E90436C4E9066620622046FEF7EC
:10175000A5FE002818BFFEF719FE40F23440C1F282
:1017600000004465A06207B0BDE8F0832DE9F043B6
:1017700081B0044690F85C00012803D1022001B03A
:10178000BDE8F0834FF001091D4616460F4684F868
:101790005C90FFF70BF894F85D10012961D1804649
:1017A000002F4FF0010018BF002E00F0B080032082
:1017B00084F85D0000202066A763A687E687206482
:1017C000A4F84400A4F84600A168C4E91300B1F5E8
:1017D000004F08D12068016821F0400101600168D4
:1017E00041F48041016020680168490603D4016822
:1017F00041F0400101606168731EE268B1FA81F155
:10180000B3FA83F349095B09B2F5E06F41EA0301DA
:1018100029D939B1A16B0988C160B81CA063E08FD8
:101820000138E087E08F00285AD06E1C0BE000BF23
:10183000A16B31F8022BC260A163E08F0138E08711
:10184000E08F00284CD0206881688907F0D4FEF72B
:10185000ADFF002EF4D0A0EB0800A842F0D3032087
:1018600055E0022053E000294FF6FE7111D0E28FBF
:10187000022A05D337F8022BC2604FF6FE7004E04F
:101880003A780273A06B471C481CA763E28F104490
:10189000E087E08F20B36E1C4F1C0AE000780873CD
:1018A000A06B39460130A063E08F0844E087E08FE9
:1018B000B0B121688868800708D4FEF777FF002E52
:1018C000F5D0A0EB0800A842F1D328E0E28FA06B8E
:1018D000022AE3D330F8022BCA604FF6FE71E2E72A
:1018E00020462946424600F0C3FD00281CBF2020A8
:1018F0002066A06838B9002000902068C168009177
:10190000806800900098206E002818BF01200021F8
:1019100084F85D9084F85C1001B0BDE8F08303208A
:10192000F5E70000B0B5044690F85C00012804BF5C
:101930000220B0BD012084F85C0094F85D0001280D
:1019400049D100294FF0010018BF002A44D00320DC
:10195000002384F85D002366A163A287E2872364E5
:10196000C4E91333A4F84430A4F84630A068B0F5B5
:10197000004F08D12068016821F040010160016832
:1019800041F480410160606D42F2F53C42F2014E4B
:1019900042F2D1352268C0F6000CC0F6000EC0F647
:1019A0000005E168C0E90BECC0E90D535368B1F5DF
:1019B000E06F23F4804353601AD88169B1F5806FDA
:1019C00016D1E38F5168DB070AD121F480415160C1
:1019D000E18F49080BE00220002184F85C10B0BDC3
:1019E00041F480415160E18F012303EB5101E18714
:1019F000A16BE38F0C32FEF7B7FD38B1206E40F0DB
:101A000010002066012084F85D00E5E72068016889
:101A1000490603D4016841F040010160416841F08A
:101A200020014160416841F0020141600020D3E79C
:101A300080B540F28420C1F2000013F039F880BD77
:101A40007047000080B500F009FE80BD10B5A0B160
:101A50000446806F28B9002084F87400204600F006
:101A600025F82420A0672068016821F001010160A9
:101A7000204600F01FFF012801D1012010BD606A3F
:101A800010B1204600F06CFE2068416821F49041BE
:101A90004160816821F02A018160016841F0010103
:101AA0000160204600F0D0FE10BD0000B0B59EB031
:101AB00002AC002520465C211D95CDE91B55CDE9E2
:101AC0001955FEF7CCFB0120029020460A95FEF73F
:101AD00047FF002818BFFEF759FC41F24C00C4F242
:101AE0000200416941F480414161416901F4804152
:101AF00001910199016841F001010160006819A993
:101B000000F00100019001984FF4C060199002208C
:101B1000CDE91A0503201C9007201D904FF090403E
:101B2000FEF76CFD1EB0B0BD2DE9F04381B0044658
:101B3000806F20280BD10E4600294FF001005AD0AB
:101B40001746002A57D094F87400012803D10220C8
:101B500001B0BDE8F083012084F874004FF0000963
:101B600021201D46C4F88090A067FEF71FFEA4F850
:101B70005070A4F85270A1680746B1F5805F07D194
:101B8000206900281CBF30464E46B046064601E09C
:101B90004FF0000884F8749009E000BF16F8010BBC
:101BA00021680885B4F852000138A4F85200B4F84E
:101BB000520088B12046802100223B46009500F06B
:101BC00099FF88B9002EE9D138F8020B21686FF32C
:101BD0005F2008850026E5E72046402100223B469D
:101BE000009500F087FF18B1032001B0BDE8F08335
:101BF0002020A067002001B0BDE8F083FEE70000D0
:101C0000F0B581B007462A201C4616460D4600F066
:101C100007F9380A00F018F9F8B200F015F9300A9F
:101C200000F012F9F0B200F00FF92B2000F0F8F8F4
:101C3000280A00F009F9E8B200F006F9200A00F0DD
:101C400003F9E0B200F000F92C2000F0E9F801B04F
:101C5000F0BD0000B0B540F20044C4F600042046D8
:101C60004FF400410022FEF79BFD04F580652846F5
:101C700080210022FEF794FD0C20FEF7ABFC2846E5
:101C800080210122FEF78CFD0C20FEF7A3FC112021
:101C900000F0C6F80C20FEF79DFC362000F0C0F8DE
:101CA000002000F0D1F83A2000F0BAF8652000F0EA
:101CB000CBF8B22000F0B4F80C2000F0C5F80C20EE
:101CC00000F0C2F8002000F0BFF8332000F0BCF8AC
:101CD000332000F0B9F8B72000F0A2F8722000F02D
:101CE000B3F8BB2000F09CF83D2000F0ADF8C02018
:101CF00000F096F82C2000F0A7F8C22000F090F831
:101D0000012000F0A1F8C32000F08AF8192000F0AB
:101D10009BF8C42000F084F8202000F095F8C6203D
:101D200000F07EF80F2000F08FF8D02000F078F857
:101D3000A42000F089F8A12000F086F8E02000F04F
:101D40006FF8D02000F080F8042000F07DF80D201E
:101D500000F07AF8112000F077F8132000F074F802
:101D60002B2000F071F83F2000F06EF8542000F0B6
:101D70006BF84C2000F068F8182000F065F80D2092
:101D800000F062F80B2000F05FF81F2000F05CF814
:101D9000232000F059F8E12000F042F8D02000F0B4
:101DA00053F8042000F050F80C2000F04DF81120FA
:101DB00000F04AF8132000F047F82C2000F044F817
:101DC0003F2000F041F8442000F03EF8512000F0A0
:101DD0003BF82F2000F038F81F2000F035F81F20C6
:101DE00000F032F8202000F02FF8232000F02CF82B
:101DF000212000F015F8292000F012F80020002121
:101E0000EF22EF23FFF7FCFE20464FF400410122B2
:101E1000FEF7C6FCB0BD000080B500F061FA80BDE1
:101E200080B582B08DF8070040F60000C4F60000CF
:101E300040210022FEF7B4FC0DF107000121FFF75D
:101E4000EBFF02B080BD000080B582B08DF80700C6
:101E500040F60000C4F6000040210122FEF7A0FC7D
:101E60000DF107000121FFF7D7FF02B080BD000090
:101E700080B582B041F24800C4F20200016800223D
:101E800041F0010101600068052100F001000190AE
:101E900001980F20FEF7F8FC0F20FEF7F1FC02B0CE
:101EA00080BD00002DE9F04786B0002741F24C00CC
:101EB0000597CDE90377CDE90177C4F20200016807
:101EC00040F2004941F0040101600168C4F60009D4
:101ED00001F0040100910099016809F5806641F064
:101EE000800101600168002201F0800100910099E9
:101EF00001684FF40B5441F001010160016801F0E9
:101F0000010100910099016841F00201016001683E
:101F100001F0020100910099016841F0080101609F
:101F200000684FF40B5100F0080000900098304614
:101F3000FEF736FC4FF0904040F60111002240F6CB
:101F4000011AFEF72DFC48464FF4134100224FF4CE
:101F50001348FEF725FC01AD0194012430462946C3
:101F6000CDE902470497FEF749FB4FF09040294620
:101F7000CDE901A4CDE90377FEF740FB0C200190E9
:101F80004FF40410CDE9020448462946FEF736FB1B
:101F900048462946CDE90184CDE90377FEF72EFBBB
:101FA0004FF48040CDE90107484629460397FEF7E4
:101FB00025FB082000210022FEF766FC0820FEF722
:101FC0005FFC092000210022FEF75EFC0920FEF7DD
:101FD00057FC06B0BDE8F08770B540F2344043F6D8
:101FE0000001C1F20000C4F200014FF482724FF40C
:101FF00000434FF4E06C4FF0020E0124002680E80D
:102000000E5000F114014FF4007570C1C0E908666C
:10201000FFF7D2FA002818BFFEF7B8F970BD00002C
:1020200080B540F2984043F60001C1F20000C4F2CE
:10203000010100234FF00C0C4FF4E13280E80E0058
:10204000C0E90333C0E905C3C0E907334362FFF7C2
:10205000FDFC002818BFFEF799F980BDFEE70000DF
:10206000FEE7000000F0070080F00703042B28BF04
:1020700004234FF0FF3C03380CFA03F338BF002071
:10208000994381400CFA00F022EA000008437047AF
:102090007047000010B598B001AC20465C21FEF7F7
:1020A000DEF84FF4042001904FF0805015904FF06F
:1020B000806013900120CDE90200102004900720D9
:1020C00005900220CDE906004FF088700890204668
:1020D000FEF746FC002804BF18B010BDFEF756F905
:1020E0002DE9F04141F20004C4F20204E2680E4618
:1020F0009107804613D0E168D8F8000001F0030191
:1021000081420AD148B1E068C0F30210D8F8041047
:102110000130884201D100252CE001252AE0D8F8C1
:102120000000032809D0022810D0012814D121680A
:10213000012222EA5105EDB910E02168890351D44A
:102140002168012222EA9145A5B907E02168012210
:1021500022EA912575B901E001255DB9E168D8F859
:10216000042021F073016FF00F0303EB0212084308
:102170001043E06015B12846BDE8F081206820F0EA
:1021800080602060FEF712FB074600BF2068000158
:1021900005D5FEF70BFBC01B0328F7D30325002D45
:1021A000E9D1AEB1206948F2FF01012ECFF6FF114F
:1021B0001CD101F1B4610140D8F810000023CFF622
:1021C000E073D8F8082003EA0050A0F5001018E0EA
:1021D000206948F2FF01C0F2FF710140D8E90220F6
:1021E000C0060EE00025002DC4D1B7E70140D8F8A5
:1021F00014004FF07E43D8F8082003EA006000F195
:102200007E4041EA022108432061206840F080605E
:102210002060FEF7CBFA06462068000105D4FEF7E1
:10222000C5FA801B0328F7D30325002DA3D1D8F8C6
:1022300018002169084320612846BDE8F0810000AC
:10224000B0B582B041F25805C4F2020529680446CF
:10225000C90015D4286840F080502860286800F034
:10226000805001900198FEF75FFB296821F08051B2
:102270002960B0F5007F08D0802C0DD9032015E02F
:10228000FEF752FBB0F5007FF6D1812C0DD3012073
:10229000A02C88BF022009E0A4F17000B0FA80F001
:1022A0004009802C08BF022000E0002042F200011B
:1022B000C4F202010A6822F0070202440A600968B7
:1022C00001F00701081A18BF012002B0B0BD0000DC
:1022D00080B540F23440C1F20000FFF7E9F880BD5C
:1022E00080B50A46014640F23440C1F20000FF23A7
:1022F000FFF73CFA80BD00002DE9F04182B041F2C9
:102300005800C4F20200016840F2344441F48041B4
:1023100001600068C1F2000400F48040019001985F
:1023200043F60000C4F200004FF482714FF4004203
:102330004FF4E06302254FF001084FF400770026C8
:1023400084E82F012046C4E90676C4E90866FFF751
:1023500033F9002818BFFEF719F841F24800C4F21B
:102360000200016840F2EC3541F0010101600168B2
:10237000A0F57F6001F0010100910099C1F2000514
:1023800010218022C5E9000805F110004FF4807388
:102390004FF48067C5E902168CC04FF48050286264
:1023A0002846EE61FEF77AF8002818BFFDF7EEFF29
:1023B0006565AC6202B0BDE8F081000080B5806A5E
:1023C0000021A0F84610C187FFF770F880BD00001B
:1023D00080B5806A01684A6822F003024A60016E93
:1023E00041F010010166012180F85D10FFF75EF8F1
:1023F00080BD000080B5806AFFF722FB80BD000031
:10240000B0B582B0846A0546FEF7D0F9296809683C
:10241000890628D402462068416821F020014160E5
:10242000416821F0020141602046642100F020F85B
:1024300018B1206E40F020002066A06838B9002056
:1024400001902068C1680191806801900198002086
:10245000E087012084F85D00206E20B12046FFF760
:1024600025F802B0B0BD2046FFF7E2FA02B0B0BDD9
:1024700070B515460E464FF4C05132462B46044601
:1024800000F018F868B9204631462A4600F08AF86C
:1024900038B920464FF4C06132462B4600F00AF8A6
:1024A00028B1206E40F020002066032070BD00207F
:1024B00070BD00002DE9F04F83B04FF000091E46BB
:1024C00090460D4683468DF80790FEF76FF9301A57
:1024D00000EB0807FEF76AF940F20401C1F20001BF
:1024E000096823225143090DDBF800A079430291CA
:1024F000DAF8081029424DD0064608F1010404E03C
:10250000DBF800008068284217D0B5F5C06F05D110
:102510009AF80C008DF807009DF80700002CEFD00A
:10252000FEF744F9801BB8420AD2029802990028AB
:1025300008BF0746481E0290E2E74FF0000929E075
:10254000DBE900014268B1F5827F22F0E0024260DF
:102550000BD1DBF80810B1F5004F02D0B1F5806F58
:1025600003D1016821F040010160DBF82810B1F5CA
:10257000005F07D1016821F400510160016841F456
:102580000051016001208BF85D0000208BF85C0099
:102590004FF00309484603B000F000B830BCBDE876
:1025A000C08F0000F0B581B015460E460446FEF718
:1025B000FDF8281A8719FEF7F9F840F20401C1F274
:1025C00000010968C1F3CB31794300912168896822
:1025D000090602D4002001B0F0BD0546013603E033
:1025E000206880680006F5D5002EF9D0FEF7DEF8E9
:1025F000401BB84207D200980099002808BF074640
:10260000481E0090ECE7D4E900014268B1F5827FF2
:1026100022F0E00242600AD1A168B1F5004F02D079
:10262000B1F5806F03D1016821F040010160A16A1A
:10263000B1F5005F07D1016821F400510160016824
:1026400041F400510160012084F85D00002084F80D
:102650005C00032001B0F0BD70470000B0B5013848
:102660000024B4EB106F1CBF0120B0BD4EF210056A
:10267000CEF2000568604FF0FF300F2100F0C8FA7D
:102680000720AC6028602046B0BD000080B5FEF792
:1026900093F842F67830C1F20000018801310180E0
:1026A00042F67A30C1F20000018801310180022037
:1026B00020F07CFD80BD000010B596B005A8442137
:1026C000FDF7CDFD00244FF400700494CDE90244E1
:1026D000CDE90044FEF7ECF8A8BBFEF72DF941F276
:1026E0009000C4F20200016821F0180101604FF46B
:1026F0008071162008911021059001200991602118
:102700000790CDE90B040D910221CDE90F10119036
:10271000282012900720CDE9130105A81591FEF796
:10272000D5FB80B90F200090032001900020CDE957
:102730000200049068460421FEF774FA18B9FEF707
:1027400005F916B010BDFDF721FE00004EF68850C9
:10275000CEF20000016841F4700101607047000092
:1027600080B5416ACA070CD18A0715D44A071ED41E
:102770000A0727D4CA0630D48A0639D44A0657D560
:1027800041E00268D0F828C0536823F4003343EADC
:102790000C0353608A07E9D50268D0F82CC053684F
:1027A00023F4803343EA0C0353604A07E0D5026800
:1027B000D0F830C0536823F4802343EA0C035360FD
:1027C0000A07D7D50268D0F834C0536823F4004311
:1027D00043EA0C035360CA06CED50268D0F838C06D
:1027E000936823F4805343EA0C0393608A06C5D5AB
:1027F0000268D0F83CC0936823F4005343EA0C030A
:1028000093604A0614D50268D0F840C05368BCF5FE
:10281000801F23F4801343EA0C03536008D1D2F8DD
:1028200004C0D0F844E02CF4C00343EA0E03536024
:10283000090658BF80BD0168806C4A6822F40022F6
:102840001043486080BD0000B0B582B0044600204F
:10285000C4F88000FDF7AAFF21680546096809074A
:102860000BD56FF07E4C20464FF4001100222B4612
:10287000CDF800C000F03EF978B920680068400744
:102880000ED56FF07E4C20464FF4800100222B467F
:10289000CDF800C000F02EF910B1032002B0B0BD99
:1028A0002020A067E0670020206684F8740002B052
:1028B000B0BD000070B504462269D4E90213006877
:1028C00066690A43E1693243066846F6F315CEF6B7
:1028D000FF750A432E4032430260426822F44052A0
:1028E0001A43426048F20002A369C4F20002904217
:1028F0001CBF266A3343866826F430663343836000
:1029000047F6FF73C4F2000398424FF0100312DC45
:1029100044F20046C4F20006B0421BD044F6000662
:10292000C4F20006B04227D141F28803C4F2020388
:102930001B681B091BE0904213D043F60006C4F24B
:102940000106B04218D141F28803C4F202031B68A9
:1029500064A60DE041F28803C4F202031B689B08E1
:1029600005E041F28803C4F202031B689B0A59A6E2
:1029700003F0030356F82330904242F20040C0F2C5
:10298000F40011D0B1F5004F1DD1082B00F25C808E
:102990000025DFE803F0055563595C59595960007B
:1029A0000025FEF70BFA59E0082B1AD80026DFE8BD
:1029B00003F005181F181C1818183E000026FEF713
:1029C000FDF9B0B938E0082B64D80025DFE803F042
:1029D000055E6C626562626269000025FEF7EEF9D1
:1029E00062E00020012620B926E00026FEF70EFA5C
:1029F00010B36268012502EB4201884265D31103DE
:102A0000884262D8010E000210EB520041F1000131
:102A10000023FDF7D7FB4FF6FF42A0F54071C0F24F
:102A20000F0291420AD821683546C8604DE04FF444
:102A3000004000260028DCD1354646E0012544E070
:102A40000025FEF7CFF909E00020012506E000256A
:102A5000FEF7DCF902E04FF400400025A8B36168FE
:102A60004A0802EB4000B0FBF1F04FF6EF72A0F124
:102A70001001914208D84FF6F0710140C0F34200B6
:102A800022680844D06020E001251EE00025FEF702
:102A9000A9F909E00020012506E00025FEF7B6F9B6
:102AA00002E04FF40040002578B161684FF6EF7204
:102AB00000EB5100B0FBF1F0A0F11001914203D8FE
:102AC000216880B2C86000E00125002128466166C7
:102AD000A16670BD000000000400000002000000BC
:102AE00008000000010000000400000002000000D7
:102AF000080000002DE9F04381B004460068C06979
:102B00000840401AB0FA80F04009904260D1DDF8E8
:102B1000208015460E46994608F1010709E000BFDE
:102B20002068C0693040801BB0FA80F04009A8429C
:102B30004ED1002FF4D0FDF739FEB8F1000F29D0A7
:102B4000A0EB0900404525D820680168490744BF2B
:102B5000C1695FEA0151E3D54FF40061016200BF32
:102B6000206850E8000F216820F4D07041E800028E
:102B7000002AF5D1206850E8020F216820F00100FA
:102B800041E80202002AF5D12020A067E067C4F8DE
:102B9000800016E0206850E8000F216820F4D07013
:102BA00041E80002002AF5D1206850E8020F2168B0
:102BB00020F0010041E80202002AF5D12020A067A0
:102BC000E067002084F87400032001B0BDE8F083C2
:102BD000002001B0BDE8F08370470000FEE7000070
:102BE000002848BF704700F01F01012202FA01F1DE
:102BF0004EF200124009CEF2000242F82010704757
:102C00004EF60C50CEF200000068C0F30220704770
:102C10004EF6145300F00F02CEF2000309011A44DD
:102C200000F16043B0F1FF3FC8BF03F5644211708B
:102C3000704700004EF60C51CEF200010A684FF6C4
:102C4000FF031A4060F30A2242F0806040F0FD70FA
:102C50000860704770B505680446287800F01AF8D7
:102C6000A0B1681E00250646811C216016F8011FD0
:102C700005EB8502807801EB4201A1F1300500F0FF
:102C800009F800283046EFD1284670BD00252846B7
:102C900070BD0000A0F1300100200A2938BF0120DA
:102CA0007047000010B540F2C000C1F200004021A2
:102CB00001F00CF845F27120C0F600001E21002240
:102CC000002420F0E3FA40F2CC01C1F200010860D8
:102CD00002F078FA40F25420C1F20000047010BDF6
:102CE00070B50346B1F90000B2F90040B1F902C075
:102CF000B2F90250B1F904E0B2F90460A042B1F9AE
:102D00000610B2F90620C8BF0446AC451C80C8BFF7
:102D10006546B6455D80B8BF764691429E80B8BF95
:102D20000A460020B4424FF00001D8BF012195426D
:102D3000D8BF01200840DA8070BD00002DE9F043C3
:102D400081B00C46B0F90070B1F900108F423DDB44
:102D5000B0F90260B4F902108E4237DBB0F904908A
:102D6000B4F90410894531DCB0F90680B4F90600E5
:102D700080452BDC15466AB3694620462A46ADF8E5
:102D80000070ADF8026000F097F8F8B1694620468F
:102D90002A46ADF80090ADF8026000F08DF8A8B1B9
:102DA000694620462A46ADF80070ADF8028000F072
:102DB00083F858B1694620462A46ADF80090ADF830
:102DC000028000F079F801B0BDE8F083002001B086
:102DD000BDE8F083012001B0BDE8F083B0F9002028
:102DE000B1F904309A4213DCB0F90420B1F9003093
:102DF0009A420DDBB0F90220B1F906309A4207DCA5
:102E0000B0F90600B1F902108842A4BF0120704752
:102E1000002070472DE9F04381B00C46B0F9046002
:102E2000B1F900108E4211DBB0F90670B4F902104E
:102E30008F420BDBB0F90080B4F90410884505DC43
:102E4000B0F90290B4F90600814503DD012001B01C
:102E5000BDE8F0831546EAB1694620462A46ADF83A
:102E60000080ADF8029000F027F898B96946204636
:102E70002A46ADF80060ADF8029000F01DF848B9A0
:102E8000694620462A46ADF80080ADF8027000F091
:102E900013F818B1002001B0BDE8F0836946204660
:102EA0002A46ADF80060ADF8027000F005F880F039
:102EB000010001B0BDE8F0832DE9F04F83B0064674
:102EC000B1F90000B6F90070B8420EDBB6F904A003
:102ED00050450ADCB1F90200B6F902800C464045C3
:102EE00003DBB6F90690484503DD002003B000F08F
:102EF00073B81546012A6BDB30460FF025F981B215
:102F000000EBD1300FFA80FB4FEA6B0000903046A7
:102F10000FF07CF881B200EBD13000B2009946107E
:102F2000B1EB600FB8BF4FEA6B06AE42A8BF2E46AA
:102F3000ADF80470374406EB080501A821460022CD
:102F4000ADF80870ADF80680ADF80A50FFF7B4FF91
:102F500030B1B819ADF80800A819ADF80A0022E0A0
:102F6000A9EB060B01A821460022ADF806B0ADF88A
:102F70000A90FFF7A1FF18B1B819ADF808000EE0EC
:102F8000AAEB060701A821460022ADF80470ADF8AF
:102F900008A0FFF791FF68B1B81BADF80400ABEBD8
:102FA0000600ADF8060001A821461DF01BFA03B08B
:102FB00000F012B801A821460022ADF80680ADF855
:102FC0000A50FFF779FF18B1B81BADF80400C3E74A
:102FD000012003B000F000B830BCBDE8C08F000095
:102FE00070B5B1F90030B2F90040B1F902C0B2F9E0
:102FF0000250B1F904E0B2F90460A342B1F906103D
:10300000B2F90620B8BF1C46AC450480B8BF65467F
:10301000B6454580C8BF764686809142C8BF0A46FD
:10302000C28070BDF0B58BB0054620F0AFF8044605
:1030300000200A900DB1E86801E011F03FFD40F278
:10304000D0260169C1F20006306008461DF074F90F
:1030500030684069002818BF1DF06EF93068C069FB
:103060001DF06AF93068006A1DF066F93068016980
:10307000002900F0A3801DF049FC1DF0A1FB306881
:10308000B0F85011C9B30168097C890716D511F051
:103090002DFD3168451E084611F080FD01382BB228
:1030A00003AD07B228460021002200970FF096F8E2
:1030B00030680168896B4D6004F024FE30684FF47D
:1030C0008071303018F028F83068202100F59870B1
:1030D00018F022F830680021A0F85011204620F0A6
:1030E0004FF80A9030680068436A33B142F6943270
:1030F000C1F200020A991268984717F083FD00F0A8
:103100003DF900F011F942F67C37C1F200077C6905
:10311000ECBB17F071FB16F0EBFB7F21002204469D
:103120001DF012F810F044FD81B2204600221CF080
:10313000FBFF11F025F981B2204600221DF088F82E
:103140002046032100221DF073F8204603210022AF
:103150001DF056F82046032100221DF059F82046A4
:10316000032100221DF05CF82046032100221DF0FF
:1031700067F84CF62A51C0F60201204617F0B2FA61
:10318000204606210022002318F0F2FB7C613868FB
:103190001FF0F6FF80084A2815D842F69430C1F295
:1031A0000000006841F2893188423AD30A98D7E991
:1031B00001120844511CC7E9010132E00021A0F8C6
:1031C00050110BB0F0BD1FF0E1FF31683860486866
:1031D00079680068002904BF01227A604FF47A718F
:1031E000BA68B1FBF0F032B14FF47A717B685143A9
:1031F000B1FBF3F500E005460021C7E90111854266
:1032000088BF0546D7E9031028443861481CF86098
:1032100020F0AAF8C0F1640336A120462A4617F030
:103220009BFA42F67435C1F200052C68C4BB17F056
:10323000E3FA16F05DFB7F21002204461CF084FFB8
:1032400010F0B6FC81B2204600221CF06DFF11F098
:1032500097F881B2204600221CF0FAFF2046032195
:1032600000221CF0E5FF2046032100221CF0C8FFCD
:103270002046032100221CF0CBFF20460321002220
:103280001CF0CEFF4CF62A51C0F60201204617F082
:1032900029FA204604210022002318F069FB2C6043
:1032A00042F67035C1F2000528681FF069FFB0F5DD
:1032B000967F1DD91FF06AFF286003A817F062FDF2
:1032C000039805994AF2A102401A40F2FE310140EA
:1032D000CAF2A002A1FB0213820A9DF824009DF805
:1032E00025709B09009007A12046019717F034FA3A
:1032F0000BB0F0BD2575204650530A2575252520B5
:103300004350550025752E2575206B422075736539
:103310006420282564202525290A25642525206682
:103320007261672E00000000B0B540F2D0050024A5
:10333000C1F200052859002818BF17F0FDFC281914
:103340001C2117F0E9FE1C34702C08BFB0BDF1E75A
:1033500040F2E031C1F20001096804E00A7E42F067
:1033600001020A764969002908BF70474A6882420B
:10337000F4D00A688242F5D1F0E7000070470000FF
:1033800080B540F2CC10C1F20000042100F09EFC98
:1033900080BD000080B540F2DC10C1F200001C21AD
:1033A00000F094FC80BD00002DE9F04F81B00A9F31
:1033B000002B044608BFB7F5807F00F0CD80DDF814
:1033C0002C804FF0FF39B8F90060B8F802E007FB35
:1033D00006F0404209EB102C0FFA8EF007FB00F5C7
:1033E0006D42891B101A09EB152579434FF002092C
:1033F000784309EB112109EB1022002BA4F800C03F
:103400006580A180E28000F0AD8046F26769C6F277
:10341000666953FB09F0811001EBD07606EB86005C
:10342000A3EB400530B220F09DF98246701C00B23B
:1034300020F098F9834606F15A0000B220F092F984
:10344000074606F15B0000B220F08CF9C5F10A01D5
:1034500001FB0AF205FB0B22794305FB001052FB2E
:1034600009F2931050FB09F003EBD271821002EBCA
:10347000D0704A114711B4F90000B4F90210B4F940
:103480000430B4F9066007FB00FE07FB01F902FBFC
:1034900011ECB8F8005002FB00FBB8F8020007FB83
:1034A00003F802FB0399534302FB16EE07FB01BA34
:1034B00002FB118107FB06BB02FB168207FB0633EA
:1034C00005EB9C2C05EB9E2E00EB9A2A05EB912137
:1034D00000EB992900EB9B2B05EB922500EB932247
:1034E0000FFA8EF00FFA8CF398421F462EB209B2F3
:1034F000B8BF07468E420D46B8BF3546AF42B8BF8B
:103500003D4698422580C8BF03468E42C8BF31461B
:103510008B42C8BF1946A1800FFA8BF00FFA8AF1CF
:1035200088420B4612B20FFA89F7B8BF0346BA4277
:103530003E46B8BF1646B342B8BF1E4688426680B4
:10354000C8BF0146BA42C8BF1746B942C8BF0F46F6
:10355000E78001B000F015B800202060481EA08070
:10356000501E0AE0B0B20CEB0003238005EB0E0303
:1035700008446380A08002EB0E00E08001B000F000
:1035800000B830BCBDE8C08F2DE9F04F81B00446D3
:10359000B0F90800B4F90A30081AE189D4F800C07B
:1035A000B1F5807FA2EB03030ED1D4E90B56D4E929
:1035B000097206FB00F105FB1311734305FB003094
:1035C00007EBA10A83101CE0A16BA2894843594371
:1035D0004011002A4FEA61120FD0D4E90B73616ADF
:1035E00003FB00F607FB12665A43A56A07FB00209F
:1035F00001EBA62A83122A4603E0D4E9091301EB62
:10360000000ABAF1000F4FF0000062D4B4F9047060
:103610004FEA2A26BE425CDA9D184FF0000058D4CB
:10362000B4F906104FEA252B8B4552DA94F8340092
:10363000410715D4238A04F118080FFA86F90FFA06
:103640008BF7404649463A4614F05CFFA08240465C
:1036500049463A4614F0E8FE00274FF000081AE009
:103660000BFB076280070AD44FEA420804F11400FA
:103670000CEB42010222022717F0C8FC0CE002EB1F
:1036800042080CEB080704F114003946022217F037
:10369000BDFCB8780327A07594F83400C00708D0A3
:1036A000A08A4EF20701884203D1002001B000F049
:1036B00017B8E07C80B12046A4F83CA0E587A4F8C8
:1036C0004060A4F842B0C4F8448084F8487000F028
:1036D0000BF801B000F004B8012001B000F000B810
:1036E00030BCBDE8C08F00002DE9F04F87B090F8E6
:1036F0003C100446066890F83E006F290DD8B4F9D6
:1037000040200025002A6FF07F02C8BF4FF0FF3530
:1037100081EA02036F2810D822E091294FF00005BA
:103720001BD3B4F94020B4F9043001329A42C1F1FC
:103730007F03B8BF01256F2812D991284FF00008E8
:103740001BD3B4F94210B4F906200131C0F17F0A4D
:103750009142B8BF4FF0010811E0FF236F28ECD869
:10376000B4F942104FF0000800296FF07F01C8BF84
:103770004FF0FF3880EA010A01E04FF0FF0A94F8A9
:103780003400B4F814B0A17D40070393029151D4E2
:10379000B4F8400004F118072844B4F94220238A01
:1037A00001B2384614F0AEFEADF81800B4F842008D
:1037B000B4F940104044238A02B2384614F0A2FE05
:1037C000ADF81400B4F84000B4F84210284401EBFE
:1037D0000802238A01B212B2384614F093FE94F81C
:1037E0003410ADF8100089074ED5CDF800B0B4F90B
:1037F00040B0B4F942600BEB0500CDF804A00FFA1D
:1038000080FA38465146324614F00EFE814606EBE9
:10381000080006B238465946DDF800B0324614F0CA
:1038200003FE804638465146DDF804A0324614F0C7
:10383000FBFD45E0606C94F84810022205FB010096
:10384000311806A817F0E2FBB4F90410606C94F884
:10385000482008FB01F101FB02000222311805A8F3
:1038600017F0D4FBB4F90410606C94F8482008FBFE
:10387000015101FB02000222311804A817F0C6FB17
:1038800094F83400800705D400204FF000084FF072
:10389000000915E094F84800616C421E5318B4F911
:1038A000047005FB003C08FB00F303FB071105FB5C
:1038B00000205318084416F80C9016F80380305C6A
:1038C00094F83410039D890703D4FF202E46A07579
:1038D0003BE0E9B281F0FF02029F02FB09F317FB14
:1038E000013308FB01F112FB0012C3F307215FFA59
:1038F0008AF301FB03F7C2F3072283F0FF0312FBF5
:1039000003731B0A022AA37598BF03294CD303290A
:1039100038BF4FF0000A032A38BF4FF0FF3A029930
:103920000329294638BF0021B9F1030F38BF4FF0F2
:10393000FF31B8F1030F38BF0025032838BF4FF01F
:10394000FF3501202E460D4690B3EAB2FF2A09D07A
:1039500012B9BDF818B005E0BDF81810584610F0BF
:1039600017FB8346F2B2FF2A03D02AB9BDF8100034
:1039700008E0BDF8140005E0BDF81400BDF8101013
:1039800010F006FB5FFA8AF24AB1FF2A01D15846CD
:1039900005E01FFA8BF381B2184610F0F9FAA08205
:1039A000012007B000F008B800202E460028CCD136
:1039B000002007B000F000B830BCBDE8C08F0000A8
:1039C0002DE9F0470446B0F90800B4F90A10B4F93B
:1039D0000C2046F2676800020902C6F26668C4E974
:1039E000090152FB08F0811001EBD07606EB86004E
:1039F000A2EB4005704200B21FF0B4FE8146F043D6
:103A000000B21FF0AFFE8246C6F15A0000B21FF0AE
:103A1000A9FE0746C6F1590000B21FF0A3FEC5F18A
:103A20000A0105FB0AF201FB0922684301FB0700BA
:103A300052FB08F2931050FB08F003EBD271821096
:103A400002EBD0704211A07C4911E162226314F0B4
:103A5000F1FD94F83420A17C02F0FE02104484F8B9
:103A60003400084614F0DAFD94F83410A27C21F0FA
:103A7000020160F34101101F01F0FB03032838BF6E
:103A800041F004032068A169206201F44070A1881C
:103A900010446FF3DF2120F0E00040EA8120E1884C
:103AA000E28940EA4150510801F50011B1FBF2F101
:103AB000A061A163218AFF2084F83430A075A1821F
:103AC000BDE8F087F0B581B016460C4607461FF0FA
:103AD0005DFBA2B240F2E814C1F2000405462046A4
:103AE0003946334615F05EF968B1E0690021A162FC
:103AF00018B928461FF044FBE061E069002804BFC4
:103B00000120E06107E020462C2117F005FB4FF073
:103B10000040A0620024204601B0F0BD10B540F284
:103B20001420C1F20000142100F0D0F815F0F4F8D0
:103B3000E0B148F2F161C0F60101044615F0C4F9A4
:103B400048F60531C0F60101204615F0BFF948F6E8
:103B50007941C0F60101204615F0BAF948F2B96181
:103B6000C0F60101204615F0ADF910BDFEE70000DA
:103B7000F0B585B004460D4610B134B905B0F0BDBE
:103B800010F09CFF0446002CF8D00020BDB302903A
:103B9000204610F0ABFF0138ADF80C00204610F0C5
:103BA000FDFF0138ADF80E00684602AA2946FFF76E
:103BB00097F80028E2D02068017C890723D4826925
:103BC0000AB169469047B4F8500188B104F1300554
:103BD00000276E46304629460022FFF7AFF800283E
:103BE000CCD1B4F850010137874205F10805F1D373
:103BF0001F2816D804EBC0003030694617E0A4F83F
:103C0000500105B0F0BD0298039920630120A4F88B
:103C10005001606861630028B0D01FF06DFC05B0F2
:103C2000F0BD0020A4F8500104F1300002A90EF00C
:103C300021F9B4F85011606801310028A4F850113E
:103C400018BF1FF059FC05B0F0BD000070B5044668
:103C500000F014F8002808BF70BD0546204629462C
:103C600000F026F806462046294600F081F828464E
:103C700017F062F8002E3546F0D170BD002814BF51
:103C80004068002070470000B0B50446FFF7F6FF1B
:103C900058B10146002500BF2046013500F008F864
:103CA00001460028F8D12846B0BD00252846B0BD01
:103CB0000068084440687047006808587047000072
:103CC000002814BF806800207047000003310022E4
:103CD00021F00301C0E9001282607047B0B50446CC
:103CE0000068083016F076FF0546A0B12046294648
:103CF000002220F0A1FD62682046294620F094FDB4
:103D0000616819B120462A4620F096FDA0686560DA
:103D1000002808BFA5602846B0BD0000B0B5044625
:103D20000068083016F056FF0546A0B12046294627
:103D3000002220F079FDA2682046294620F07CFD73
:103D4000A16819B120462A4620F06EFD6068A56082
:103D5000002808BF65602846B0BD000028B1416852
:103D600009B9806808B10020704701207047000041
:103D700070B5002808BF70BD04460D46FFF77EFFF2
:103D8000A8421AD02046FFF79BFF06462046294648
:103D9000FFF792FFAE4206461BD020462946FFF7AA
:103DA00087FF0546204631462A4620F03DFD204645
:103DB0002946324620F040FD70BD20462946FFF7D7
:103DC00077FF606068B101462046002220F034FD94
:103DD00070BDA66046B120463146002220F024FD89
:103DE00070BD0020A06070BD0020606070BD00004C
:103DF00010B50446006882680AB1214690472068E1
:103E00000068002808BF10BD20602046FFF7F0FFC3
:103E100010BD00008068002814BFC08A002000B2D6
:103E2000704700002DE9F04F91B00446408CDDF85A
:103E300068B040F00400608422841646BBF8082075
:103E400020461F468A461AF029FA2784BBF8082024
:103E50000546204651461AF021FA618C814621F030
:103E600004004D45608406D104BF89EA05005FEA7D
:103E7000004000F087802684BBF808202046514689
:103E80001AF00CFA80462046514627840CF056F86A
:103E90000068BBF8081042461EF012F8BBF8080094
:103EA000602828D147F6FF76B14518BFB04522D12A
:103EB00020461AF0B3FC81B200EBD13000B24510BD
:103EC00020461AF0ABFC81B200EBD13000B2B04515
:103ED0004FEA600005D1691C00F101084145B8BFF7
:103EE000884647F6FF71894505D1691C00F1010933
:103EF0004945B8BF894640F23020C1F20000FFF7C3
:103F0000EDFE002842D0C0E9038904600646BBF8F4
:103F1000080001ACB0802046C6F808A00DF04CF9AE
:103F2000204631460DF0ECFA48F24541C0F6020158
:103F300020460DF03DFA20460DF0A4FA48F29D51BE
:103F4000C0F6020120460DF075FA20460021FF223E
:103F50000DF0B2FABBF8001020460DF09BFABBF84A
:103F6000021020460DF016FADBF80C1020460DF07A
:103F70003FFA20460DF012FADBF8100006902046BA
:103F80000DF0DAFA11B000F002B800BFFEE730BC65
:103F9000BDE8C08F80B540F23020C1F2000014218E
:103FA000FFF794FE80BD00002DE9F04782B0044683
:103FB000408C10F4FC7F00F025816FEA010AD543A4
:103FC0004FF000090DF1040800270AE00020002846
:103FD00040F01B81608C0137C0F3C500874280F040
:103FE0001681E66806EBC70040688101F2D420F034
:103FF0007F401CF09FF900EA0A012840B1FA81F1E4
:10400000B0FA80F0490940098142DFD056F83760A4
:1040100041F61001304642461DF0CAFC002840F02F
:104020007F80304641F6110142461DF0C1FC002858
:1040300076D1304641F6120142461DF0B9FC002807
:104040006ED1304641F6130142461DF0B1FC002806
:1040500066D1304641F6150142461DF0A9FC002804
:104060005ED1304641F6140142461DF0A1FC002805
:1040700056D1304641F2690142461DF099FC0028B4
:104080004ED1304643F20C0142461DF091FC00280F
:1040900046D1304643F20D0142461DF089FC00280E
:1040A0003ED1304641F2010142461DF081FCB8BBD1
:1040B000304641F2040142461DF07AFC80BB304696
:1040C00041F2020142461DF073FC48BB304641F20A
:1040D000030142461DF06CFC10BB304641F2050165
:1040E00042461DF065FCD8B9304641F20601424611
:1040F0001DF05EFCA0B9304641F2320142461DF08F
:1041000057FC68B9304643F60F0142461DF050FC9B
:1041100030B9304643F60E0142461DF049FC38B135
:104120000120002808BF002000283FF453AF6CE0B6
:10413000304640F60A0142461DF03AFC002856D1AE
:10414000304640F60B0142461DF032FC00284ED1AD
:10415000304643F60F0142461DF02AFC002846D1A6
:10416000304643F60E0142461DF022FC00283ED1A7
:10417000304640F63C0142461DF01AFCB8BB3046C2
:1041800040F63D0142461DF013FC80BB304640F630
:104190003A0142461DF00CFC48BB30464FF4046126
:1041A00042461DF005FC10BB304640F64501424634
:1041B0001DF0FEFBD8B9304640F6410142461DF0E5
:1041C000F7FBA0B9304640F6420142461DF0F0FB35
:1041D00068B9304640F6430142461DF0E9FB30B96C
:1041E000304640F6490142461DF0E2FB18B100207E
:1041F0004FF0020995E70020B9F1000F08BF4FF01A
:1042000001098EE74FF0000901E04FF003095FFA62
:1042100089F002B0BDE8F08740F2D020C1F2000082
:104220000068704780B520F023FC20F093F980BD32
:10423000C0F30410072828BF0720704780B540F25C
:104240004420C1F200001821FFF740FD01201FF0BB
:1042500057F880BD2DE9F041F8B1164604460D46E9
:10426000FCF708F840F20808C1F20008D8F800206E
:104270000746204629469047D8F8002005462044A6
:1042800031469047391A8D4288BFBDE8F0812044FD
:10429000425D625501358D42FAD9BDE8F0810000DA
:1042A0002DE9F04140F21008C1F200081446D8F898
:1042B00000200F4619461D4606469047386040B11B
:1042C0002868D8F800203044002190472060BDE8DD
:1042D000F08100202060BDE8F08100002DE9F04F62
:1042E00087B0DDF840900446B9F1000F1F469046B4
:1042F0008B461CBF0020A9F8000034B3BBF1000FAF
:104300004FF0000079D02178002976D0DDF844A064
:104310001AF0060F1DD00020012142F2014200E0F8
:104320000130235C0D2BFBD801FA03F71742F7D0BD
:10433000002B18BF0130B9F1000F5ED04FF6FF71AE
:10434000A9F8001007B000F05BB8002007B000F03B
:1043500057B80026012F8DF81B60059634DB2078B6
:1043600090B32046002100260022B1FA81F1049288
:10437000490904AA019203913BB2594642460DF104
:104380001B05CDF800A002951FF026FABDF810100D
:104390000E44C8B1059B227818440A2A059018BF1C
:1043A0000D2A11D0225C0D2A18BF0A2A0AD0781AC9
:1043B00007B2012F08DB0599605C002804EB0100BF
:1043C000D2D101E001300590059880B940F210008B
:1043D000C1F20000026805A920469047B9F1000F1C
:1043E00005D001465846002213F0DEFB0646B9F11F
:1043F000000F18BFA9F80060059807B000F000B8DA
:1044000030BCBDE8C08F00002DE9F04381B030B36F
:10441000144622B3054620468846FBF72BFFF0B131
:1044200006462846FBF726FF074640F20800C1F281
:10443000000002682846414607EB060990478119AB
:10444000894507D3AA1900BFEB5DD355013FF31986
:104450008B42F9D228442146324616F0F3FD01B0D2
:10446000BDE8F083A0F59C4145F2A61291423CBF05
:1044700001207047002106A2535C834204BF012043
:1044800070470131072904BF00207047F4E700BFDF
:10449000202C2E3B3A2D5F0023290AD103780022DD
:1044A000022B08D0012B09D0002B04BF012202707F
:1044B00006E0002204E00270012201E00022027006
:1044C0000378012B06D120291CBF0120704702214F
:1044D00001220170104670472DE9F04182B0044678
:1044E0000B46CDE900110020002122464FF00008C4
:1044F0001FF068FC451C0746284616F06BFB58B1B8
:1045000000F80780019B2946224606461FF05AFC08
:10451000304602B0BDE8F081FEE700002DE9F04F23
:1045200081B0F2B1DDF828909B4614460F468046D4
:104530004FF0010A06E000BF2AEA0400341A05EB36
:104540000B0764B1660806FB0B7540462946C84751
:104550000128F1DAB0F1FF3F3446F2DD02E0002538
:1045600000E00025284601B000F000B830BCBDE8EE
:10457000C08F00002DE9F04F85B0149C0DF1380A72
:10458000DDE912859AE8C00494468B46A10781466E
:1045900043D45DB1E00706D014F00C0018BF012031
:1045A00040EA0A002D1A474503D323E0002547457A
:1045B00020D21F2F1ED8F9434144C7F11F02914258
:1045C00038BF0A46F019511C30224C469946E24643
:1045D000FBF73EFED446DDF840A04B46A146149CB6
:1045E000781C404502D21F2F0746F9D314F0010171
:1045F00008D103E0384614F0010103D10746E00674
:104600000DD436E0302200BFA84252D21F28F5D880
:10461000471C325400293846F6D1E00629D51198B6
:1046200061050CD45FB1474518BFAF4207D1791E71
:104630000A4618BFBA1E102818BF0A461746102887
:104640000BD114F0200103D1202F01D2782009E0F2
:1046500019B1202F01D2582004E0022804D11F2FC5
:1046600002D86220F05501371F2F9EBF3020F05531
:1046700001371F2F11D8BAF1000F03D02D20F055AC
:1046800001370AE0600705D4200742BF2020F0551B
:10469000013702E02B20F055013748465946624663
:1046A000CDE900670295039400F0B4F805B000F07E
:1046B00004B80746E006DCD5B1E730BCBDE8C08FE2
:1046C0002DE9F04F91B01646DDE91AC21F46DDE92B
:1046D0001CB3DDF87C90BCF1000F08BF29F0100975
:1046E000BCF1000FCDE9076704D119F4806401D053
:1046F00000241EE009F0200484F0610404F1F608AF
:1047000000250DF1240A00BFBCFBFBF7464607FB62
:104710001BC404F0FE0EBEF10A0F38BF302626443B
:104720006C1CDC450AF8056003D31F2D2546BC46EA
:10473000EAD309AFCDE90074CDE9022B0493DDE99A
:1047400007231E9FCDF818900597FFF713FF11B0B0
:1047500000F000B830BCBDE8C08F00002DE9F04F7C
:1047600093B0DDE91C65DDF8908056EA0507209CD2
:1047700008BF28F010080DF11C0C8CE80F0027B9B9
:1047800018F4806701D0002227E008F02000219F64
:1047900080F0610000F1F6094FF0000A0DF12C0BDA
:1047A0003046294622463B46FBF70CFD00FB1462CF
:1047B00002F0FE030A2B4B4638BF3023361B13444E
:1047C0000AF1010275EB07060BF80A3005D3BAF1BE
:1047D0001F0F924606460D46E2D30BA8CDE9000214
:1047E0001E9807ABCDE902042298239F04900FCBBB
:1047F000CDF818800597FFF7BDFE13B000F000B8A4
:1048000030BCBDE8C08F00009A4238BF8854704762
:10481000704700002DE9F04F83B006460F980D4613
:10482000DDE90DA19946904600F0020BC007144641
:1048300012D1BBF1000F44460ED18A4544460BD23B
:10484000A1EB0A07424600BF202029464B46541CD4
:10485000B047013F2246F7D1BAF1000FCDE9018BF5
:1048600011D00C98A0F1010818F80A002946224638
:104870004B46AAF1010B671CB047BBF1000F3C4649
:10488000DA46F1D100E02746029898B10199DDF8A7
:1048900038A0781A50450FD2C1F1000820202946CF
:1048A0003A464B467C1CB04708EB0400504527466F
:1048B000F4D302E03C4600E03C46204603B000F062
:1048C00000B830BCBDE8C08F024659B10278002A5A
:1048D000024607D04942024612F8013F013101D297
:1048E000002BF9D1101A70472DE9F04F91B0DDF887
:1048F00068A044F6110693468846C0F600060027D5
:104900001093002918BF064610990878002800F077
:104910007082252809D041463A465B467C1CB04748
:104920001098274601301090EEE7481C4FF0000920
:10493000109004E0481C10900120002822D010990B
:104940000878A0F12002102A4FF00000F5D8DFE827
:1049500002F00D0C0C090C0C0C0C0C0C0C100C13B4
:104960000C0C160049F01009E4E7E6E749F00809E5
:10497000E0E749F00409DDE749F00209DAE749F028
:104980000109D7E75446DDF840A09AF800502846C0
:10499000FEF780F918B110A8FEF75CF911E02A2D96
:1049A0000ED154F8040B00280E9044BF41420E91E2
:1049B00000280AF1010048BF49F00209109001E007
:1049C00000200E90109D28782E2818D1681C109079
:1049D00095F801A049F480695046FEF75BF920B1D3
:1049E00010A8FEF737F982460BE0BAF12A0F06D17C
:1049F00054F8040B20EAE07AA81C109001E04FF074
:104A0000000A1098CDF834A0017868394FEA710196
:104A1000092917D8DFE801F00812781616160516CE
:104A2000160549F480790BE0411C10914178682902
:104A300040F07C8049F0C009023002E049F400797E
:104A400001301090109A1078A0F12503532B00F23A
:104A500096801021DFE813F09000930093009300FC
:104A600093009300930093009300930093009300AE
:104A7000930093009300930093009300930093009E
:104A8000930093009300930093009300930093008E
:104A9000930093009300930093009300930093007E
:104AA00093009300930093009300930093006100A0
:104AB00093009300930093009300930093009F0052
:104AC000930093009300930093009300930093004E
:104AD00093009E00220154009300930093009300E2
:104AE00054009300930093009300930070006100C2
:104AF00093009300720093005400930093009F0072
:104B000029F010090A2146E0411C109141786C29D6
:104B10000FD149F44079023093E712F8010F49F4BC
:104B20008879562808BF1092102134E049F0800996
:104B300088E749F4807985E708212CE054F8045B84
:104B40000B940D9C28462146002C08BF4FF0FF31E6
:104B5000FFF7BAFE09F48062A042214638BF014641
:104B6000002A0C9208BF014619F0020400F0AC8044
:104B7000DDF834A00A91EDE07D1C252000E07D1CCD
:104B800041463A465B46B04710982F460130109098
:104B9000A246B9E602211098A246007840F0080229
:104BA000582A08BF49F02009642803D0692818BF93
:104BB00029F00C095FEA495248BF29F0010956283B
:104BC00013D0692801D064281FD15FEA89502CD402
:104BD0005FEAC95045D45FEA496067D4DAF800005B
:104BE0005FEA096248BF00B262E05AF8040BABEB1F
:104BF000070241680D6808EB07010F95036830460E
:104C00000095FFF771FE07449CE05FEA89502BD4C2
:104C10005FEAC95055D45FEA49607ED4DAF80000F3
:104C20005FEA096248BF80B279E00AF1070020F02C
:104C3000070ADAF804205AF8080B049100210591BC
:104C40000D9910EBE27042EBE27306910E9983EA44
:104C5000E27380EAE270CDE90719D50FCDE90003D0
:104C600014E05AF8040B25E00AF1070020F0070AC7
:104C7000DAF804205AF8080B04910D9900250691E2
:104C80000E990595CDE90719CDE900023046414658
:104C90003A465B460295FFF761FD52E019F00200CB
:104CA000A2460D9026D04FF0010981E09AF800004D
:104CB0000AF1040A0246002848BF4242C00F00928F
:104CC00031E05AF8040B2CE00E9881423ED209954F
:104CD000A146421C441A00250A9200BF7A192020DE
:104CE00041465B46B0470135AC42F7D12F44099DA0
:104CF0004C462FE00E98022858D300F10109454296
:104D0000002400BF3A19202041465B46B0470134D9
:104D100028190130F6D127444AE09AF800000AF138
:104D2000040A00900020CDE901010D98414603904E
:104D30000E983A46049030465B46CDF81490FFF743
:104D4000BFFC0746109801301090DDE5481CDDF8E7
:104D500034A00A902878B0B105F101090AE000BF3B
:104D6000C0B241463A465B467D1CB04719F8010B7C
:104D70002F4648B10C990029F2D0BAF1000F31D07A
:104D8000AAF1010AECE73D467CB30E980A998142EC
:104D90002BD2DDF82CA0441A202041462A465B463F
:104DA0006F1CB047013C3D46F6D1CBE74FF00209FE
:104DB0001AF8040B41463A465B467D1CB0470D98F5
:104DC00070B10E9881450BD2A0EB0904202041461A
:104DD0002A465B466F1CB047013C3D46F6D1B1E721
:104DE0002F46AFE73D46002CCFD1DDF82CA02F4653
:104DF000A8E73A46002041465B465F4528BFABF135
:104E00000102B047384611B000F000B830BCBDE830
:104E1000C08F000010B54FF0000448B100F018F842
:104E20000C28014698BF0C21B0F5803F38BF0C46D6
:104E3000204610BD20F00300704700004A1E1142BA
:104E400004D108440138494208407047FEE7000099
:104E50004A1E114204D108440138494208407047B3
:104E6000FEE700002DE9F041044608680D460121E7
:104E70006186C0B14DF213080026C0F60208002773
:104E800006E000BF01370136B0B255F8200058B136
:104E9000017849B14146FBF7F4F90028F2D1608E60
:104EA00001306086EFE70027208EBDB2854208BF43
:104EB000BDE8F081A06A18B115F03EFF0020A062A5
:104EC000E06A18B115F038FF0020E062E80015F044
:104ED00081FEA06280B1680015F07CFEE06268B1DE
:104EE000A16A002908BF0F46B9B2490016F014F9AB
:104EF0002786BDE8F08100BFFEE700BFFEE70000A7
:104F00002DE9F04F85B09246427A0C4602F0070137
:104F100040F2E43940F2D818022956464FF0130106
:104F2000C1F20009C1F2000808BF26465445C8BFB7
:104F3000A24601EB4A02D9F80070D8F8001040F2FE
:104F4000E83BC1F2000B22F003057A1ADBF80010EF
:104F50002A448A4204D2796821F0004179603DE018
:104F60008D4203900BD9284615F034FE30B1074628
:104F7000406840F00040786003982FE0FEE7DBF8DF
:104F80000010CDE901468A421FD94EF6011440F6C1
:104F90008137C0F6000404AEC0F601074FF0FF30C1
:104FA00004902046314600220BF0AEFD38463146D3
:104FB00000220BF0A9FDD9F80000D8F80010401A23
:104FC000DBF8001028448842E8D8D9F800707868E7
:104FD00020F0004078600398DDE9014631B22246B6
:104FE00001F048FC386078680121B0F1FF3F61F3BF
:104FF0001E007860A7F80CA0FE8108DDD9F800003B
:1050000000F110012844B960C9F8000002E007F17E
:105010001000B860384605B000F000B830BCBDE8FC
:10502000C08F0000F0B583B090F83C20002302F060
:105030000302012A8DF80B308DF80A308DF8093003
:1050400040D0022A7DD140F2240CC1F2000C9CF821
:105050000030934240F25023C1F200031ED0878CEF
:1050600046F6174607EB47077F02FF08C1F2C16605
:10507000A7FB067690F82600332778434CF6CD47F9
:10508000CCF6CC47A0FB0707B0081880380940F2DF
:105090005227C1F2000738708CF8002040F25222EB
:1050A000C1F2000292F800C018880DF10A020DF159
:1050B00009070092CAB20DF10B036146019709F08E
:1050C000A7F875E040F22403C1F200031F7897426D
:1050D00021D0878C46F6174607EB47077F02FF086B
:1050E000C1F2C166A7FB067690F827003327784304
:1050F0004CF6CD47CCF6CC47A0FB0707B00840F2F2
:105100005026C1F200063080380940F25327C1F220
:10511000000738701A7040F2502040F25322C1F25A
:105120000000C1F20002008812780DF10A030DF1AF
:1051300009070093C9B20DF10B03019709F068F854
:1051400036E040F22404C1F20004237840F2522EEB
:1051500040F2532C9342C1F2000EC1F2000C15D064
:1051600090F8263090F8270033254CF6CD466B4357
:10517000CCF6CC46A3FB06376843A0FB06033809F0
:105180008EF8000018098CF80000227001EB410035
:105190009EF800109CF8002040000DF10A030DF16C
:1051A0000907009380B20DF10B03019709F030F865
:1051B0009DF80B009DF80A109DF809200EF038FEAE
:1051C00003B0F0BD80B540F25420C1F200000121CF
:1051D000017040F2C000C1F20000FEF74FFD014631
:1051E00040F2CC00C1F20000006811B11EF084F959
:1051F00080BD1EF071F980BD10B5044690F83E00E8
:1052000010F0020107D1A28F2AB14FF6FF739A4224
:105210001CBF013AA287A28F12B9626BBAB1B1B9B1
:10522000D4E90D235B42002AE36208BF10BD11B927
:10523000216B4942E16280F0020084F83E00E0699F
:10524000D4E90913E161C4E90902636310BD40F2C6
:10525000C000C1F200002146FEF78AFDFFF7B2FF51
:10526000E16809B120468847204615F065FD10BD6C
:105270002DE9F04740F22C58C1F20008D8F80000A0
:105280001DF07EFF40F25529C1F2000999F8001087
:10529000044681F0010089F8000040F2C000C1F22C
:1052A0000000FEF7EBFC002863D040F2542740F2E8
:1052B000C0050646C1F200074FF0000AC1F2000522
:1052C00007E000BF28463146FEF7F2FC06460028FC
:1052D0004FD096F83E0087F800A0C0F3800299F8FE
:1052E00000108A423ED000F0FB0242EA8101020730
:1052F00086F83E101AD4F16A002917DC091915D472
:10530000C00709D1316939B130468847F169726AFD
:1053100001441044F1617062B16809B130468847B8
:1053200096F83E0040F0080086F83E00F06A00194A
:10533000F06217D4B16A8842C8BFF162B1693046E1
:105340008847326A904205D07268014630620AB1DD
:1053500030689047D6E90A01814203DB3046FFF707
:105360004BFF00BF38780128ACD12846FEF786FCF9
:10537000ACE71DF00BFFC8F80000BDE8F0870000A7
:105380002DE9F04107464FF6FF70144622EA000867
:1053900097B138460D4618F033FB68B106460068F1
:1053A00050B13846294618F031FB28B1336802461F
:1053B000A1B2304698470446A0B240EA0800BDE8D2
:1053C000F0810000B0B5044640680D4610B1294692
:1053D000FFF7F8FF2268002A08BFB0BD2046294623
:1053E0009047B0BD80B589B20CF09EFC80BD000036
:1053F00080B589B20CF0DAFC80BD0000B0B50D4676
:10540000044600F035F800B1FEE7284600F01EF92A
:105410006168084404306060204600F035F820469A
:10542000B0BD000010B50C4600F010F904F11002F8
:105430000021904228BF0121084610BD083870475E
:10544000B0B582B0054608460C4600F0FFF801A949
:105450006A461FF043F8DDE90032284621460AF08B
:10546000CFFF02B0B0BD0000406800F001007047FF
:1054700080B500F0EBF8B0FA80F0400980BD000084
:10548000406800F00200704710B5044600F07CF858
:10549000046010BD70B582B00D460446002601962A
:1054A000009669B101A96A4628461FF02FF80198B5
:1054B000092807DC01A96A46204620F083F9064640
:1054C00016B90EE0002666B1304600F0BFF8A842DB
:1054D00001D200BFFEE7DDE90032204631461FF071
:1054E000F7FE304602B070BD10B50446FFF7CCFFA2
:1054F00000F094F8204600F08BF810BD10B504467B
:1055000000F042F800F090F8204600F099F810BD45
:1055100070B5064608460C4600F036F850B1054610
:10552000FFF7A2FF78B12046FFF7A2FF18B100BF36
:10553000FEE700BFFEE73046294600F055F820465A
:105540002946FFF75BFF204670BD000070B5054699
:1055500008460C46FFF794FF80B1204600F03AF869
:1055600070B10646FFF780FF60B12846314600F073
:105570003BF830462146FFF741FF3446204670BDD8
:10558000FEE700BFFEE70000B0B50446FFF770FF7E
:1055900008B100BFFEE7204600F088F80546204627
:1055A00000F054F8011F28461FF060FAB0BD00005B
:1055B000002904BF0020704752B110B50C4600F01E
:1055C00077F82046FFF79AFF204600F06FF810BDED
:1055D000FEE7000010B50446FFF752FF10B1206847
:1055E00010BD00BFFEE70000B0B582B0054608461A
:1055F0000C4600F02BF801A96A461EF06FFFDDE9AA
:105600000032284621461FF063FE02B0B0BD000004
:10561000416841F00101416070470000416841F07C
:105620000201416070470000416821F002014160C1
:1056300070470000426802F0030211434160704766
:10564000416821F00101416070470000406820F08E
:1056500003007047F0B581B00C46054600F026F80F
:10566000211F1FF003FA064600F020F80421074628
:10567000FFF7E4FB874200D0FEE72846FFF7E6FF8E
:10568000001B011F3046FFF7D5FF3046FFF7DEFF56
:105690000B2809D928462146FFF7CCFF3046FFF7F3
:1056A00023FF304601B0F0BDFEE700000830704730
:1056B00070B50446084616460D46FFF7D5FEB8B14C
:1056C00028463146FFF7AEFE002808BF70BD2846C9
:1056D0003146FFF7BFFF06462846FFF7D5FE3046A6
:1056E000FFF79CFF20463146FFF7AAFE70BD00BFC2
:1056F000FEE7000070B50446084615460E46FFF763
:10570000B3FE00B1FEE730462946FFF78BFE0028C6
:1057100008BF70BD30462946FFF79CFF0546FFF7DE
:1057200083FF20462946FFF7F3FE01462046FFF798
:1057300087FE70BDB0B582B0044613F0E7FD0546A4
:1057400013F028FE38B1208FE086204619F0FEFACB
:10575000012002B0B0BD204611F002FFF0B120469A
:1057600011F0C6FD218FE08E81420BD02087019081
:1057700001AA20461C2112F00DF90128E9D120468A
:1057800019F0E4FA284613F011FE042809D1204646
:1057900017F04AF9002112F021FE02E0204611F034
:1057A0003DFF012002B0B0BDB0B512F0EFF80446E5
:1057B00017F088F9054620460DF03EFB01462846C5
:1057C00001221CF09DFFB0BDC0B2C00970470000AF
:1057D000C0F3801070470000C0B2C00970470000DD
:1057E000C0F3002070470000C0F3C0007047000005
:1057F000C0F3401070470000C0F340207047000025
:10580000C0F3003070470000C0F300107047000084
:105810002DE9F04F85B00C460021054617F02AF817
:1058200030B32846214600F0B5FA2846214600F05C
:105830006DF8284618F048FB8146284618F08CFC85
:105840000490284617F068FF0646284618F0B4FF73
:105850000746284618F0B0F942F2D1718F428246CD
:105860000DD1688C012100F4806081EA902B08E062
:1058700020461C2115F050FC05B000F044B84FF054
:10588000000B701EB0FA80F04FEA5018284617F04F
:1058900065F80646284609F0EDFDA16823692768EA
:1058A0000246CDE90031304659464B46CDF80C80D2
:1058B00002970AF0C3FB208342F2D1704FF0000937
:1058C00082454FF0000605D1688C012100F400707C
:1058D00081EA5026284617F029F80746284609F09D
:1058E000CDFDE16863696568CDE90031049B02463E
:1058F00038463146CDF80C9002950AF09FFB608344
:1059000005B000F000B830BCBDE8C08F2DE9F04F05
:1059100081B08946064609F0F3FC8246304617F00E
:105920001DF80090504601F00BF8C9F81000400037
:1059300015F084F9D9F81010C9F80000480015F0E6
:105940007DF9D9F81010C9F8080000294FD040F2AD
:10595000010B41F69A72C0F2060B4FF0000811E0FD
:10596000D9F8080021B241F69A7200294FF00001DF
:10597000D8BF0C4620F81840D9F8101008F10108DB
:10598000884534D23AF818009042F5D1304616F0E6
:1059900083FF00284EF20104E2D000254EF20104FC
:1059A00006E000BF3046013516F076FF8542D7D2BB
:1059B0003046294616F05EFF5946074618F078FF34
:1059C0000028EFD1384609F0A5FC0128EAD1384675
:1059D00009F09AFC8045E5D1384618F01FFF21B246
:1059E0008142DFDC384618F019FF0446DAE74FF051
:1059F0000008D1B1002041F69B7241F69A7C002745
:105A000000240BE0D9F80850634514BF25F8103086
:105A100035F810301F440130814208D03AF9103077
:105A20009342EFDB23449C1AF5E70024002730461D
:105A300018F04AFAD9F81010009B4A1E02FB1030E9
:105A4000C01B02B2002AD8BF4046E9B183B24FF072
:105A5000FF37002241F69B764FF0000803E000BFBD
:105A60000132914212D03AF91250B542F8DBAF1B25
:105A70000FFA87F808FB03F7B7FBF4F7D9F80850DB
:105A800025F812701746EBE74FF0FF37002F0AD4C6
:105A900081B2A4EB08025143B1FBF4F1D9F808201C
:105AA000401A22F8170001B000F000B830BCBDE881
:105AB000C08F00002DE9F04F83B000210022044682
:105AC0004EF2010A1AF0AEF8204617F037FF0546ED
:105AD000204618F059FB4619204618F077F905447E
